:020000040800F2
:1000000068040120E1010008E9010008EB01000893
:10001000ED010008EF010008F101000800000000F8
:10002000000000000000000000000000F3010008D4
:10003000F501000800000000F7010008F9010008C0
:10004000FB010008FB010008FB010008FB010008A0
:10005000FB010008FB010008FB010008FB01000890
:10006000FB010008FB010008FB010008FB01000880
:10007000FB010008FB010008FB010008FB01000870
:10008000FB010008FB010008FB010008FB01000860
:10009000FB010008FB010008FB010008FB01000850
:1000A000FB010008FB010008FB010008FB01000840
:1000B000FB010008FB010008FB010008FB01000830
:1000C000FB010008FB010008FB010008FB01000820
:1000D000FB010008FB010008FB010008FB01000810
:1000E000FB010008FB010008FB010008FB01000800
:1000F000FB010008FB010008FB010008FB010008F0
:10010000FB010008FB010008FB010008FB010008DF
:10011000FB010008FB010008FB010008FB010008CF
:10012000FB010008FB010008FB010008FB010008BF
:10013000FB010008FB010008FB010008FB010008AF
:10014000FB010008FB010008FB010008FB0100089F
:10015000FB010008FB010008FB010008FB0100088F
:10016000FB010008FB010008FB010008FB0100087F
:10017000FB010008FB010008FB0100080000000073
:10018000FB010008FB010008FB010008FB0100085F
:10019000FB010008FB010008FB010008FB0100084F
:1001A000FB010008FB010008FB010008FB0100083F
:1001B000FB010008FB010008FB010008FB0100082F
:1001C000FB010008FB010008DFF810D000F02AF85E
:1001D00000F018F800480047AD030008680401204B
:1001E0000648804706480047FEE7FEE7FEE7FEE7D1
:1001F000FEE7FEE7FEE7FEE7FEE7FEE7490200084E
:10020000C901000870B5054C054D03E02068204485
:100210008047241DAC42F9D170BD000018060008CB
:100220001C060008064C074D06E0E06840F001039C
:1002300094E8070098471034AC42F6D3FFF7C8FFA4
:10024000F8050008180600081448006840F470001B
:10025000124908601248006840F001001049086027
:1002600000200F49083108600D4800680D4908401A
:100270000B4908600C48091D0860081F006820F43D
:100280008020091F0860002005490C3108604FF0EC
:1002900000600249803908607047000088ED00E086
:1002A00000380240FFFFF6FE1030002410490860BD
:1002B000096821F480710E4A11601146096841F401
:1002C0000071116000210B4A116004E009490968BE
:1002D000491C084A116007490968074A1268914297
:1002E000F4DB0349096821F40071014A1160704789
:1002F0001404024008000120040001201049086095
:10030000096841F480710E4A11601146096841F490
:100310000071116000210B4A116004E0094909686D
:10032000491C084A116007490968074A1268914246
:10033000F4DB0349096821F40071014A1160704738
:1003400014040240080001200400012002E008C853
:10035000121F08C1002AFAD170477047002001E03F
:1003600001C1121F002AFBD1704700000A48007823
:1003700080300A49087008480078C0300849087081
:100380000548007894300749087003480078D43055
:1003900005490870704700001C0001201D00012065
:1003A0001E0001201F00012020000120062081499D
:1003B00008608148814908600020091D08607E4866
:1003C000091D0860091D086000207D4908607D48FE
:1003D0000078FFF76BFF7C480078FFF767FF7B48EA
:1003E0000078FFF763FF7A480078FFF75FFF7948EE
:1003F0000078FFF75BFF78480078FFF757FF402051
:10040000FFF754FF00230BE0002406E0734901EBE3
:10041000C301085DFFF772FF641C082CF6DB5B1C50
:10042000082BF1DB67480078FFF740FF8620FFF7D5
:100430003DFF0020FFF762FF8720FFF737FF012015
:10044000FFF75CFF8820FFF731FF0220FFF756FF20
:100450008920FFF72BFF0320FFF750FFC620FFF78F
:1004600025FF0420FFF74AFFC720FFF71FFF0520E5
:10047000FFF744FFC820FFF719FF0620FFF73EFFF4
:10048000C920FFF713FF0720FFF738FF90E04C4823
:100490001030006800F40050B0B151480078514964
:1004A00008704F480078401C4D49087000204E49A4
:1004B000086004E04C480068401C4B4908604A480A
:1004C00000684A498842F5DB4648007830380B28F6
:1004D0006CD2DFE800F0060D141B222930373E45B0
:1004E00050003020FFF70AFF0F203E4908705EE001
:1004F0003120FFF703FF0F203A49087057E0322000
:10050000FFF7FCFE0F203749087050E03320FFF75B
:10051000F5FE0F203349087049E03420FFF7EEFE66
:100520000F203049087042E03520FFF7E7FE0F202A
:100530002C4908703BE03620FFF7E0FE0F202949E8
:10054000087034E03720FFF7D9FE0F2025490870E6
:100550002DE03820FFF7D2FE0F202249087026E058
:100560003920FFF7CBFE0F201E4908702048007885
:10057000FFF79CFE1BE03020194908701D480068F9
:10058000401C1C4908600846006801280ADD0D4827
:100590000078FFF78BFE10480078FFF787FE0020F9
:1005A000144908600F200F49087000E000BF00BF29
:1005B0006DE70000303802405555550000040240F8
:1005C000000802401000012011000120120001204B
:1005D00014000120160001201D000120210001202F
:1005E000010001200000012008000120A086010078
:1005F0001E0001200C0001201C0600080000012044
:10060000640000004C03000880060008640001201C
:10061000040400005C03000855FDFFFF00300000EB
:10062000E8030000000000000000000001023C3C64
:100630000C0806041C181410000000000000000341
:10064000030001010300001F1F1C10010300001F15
:100650001F070110180000181800101018030101DE
:1006600000030300000301101C1F1F0000181001ED
:10067000071F1F00001810100018180000000000CD
:04000005080001E10D
:00000001FF
